{
  "contractName": "Color",
  "abi": [
    {
      "inputs": [],
      "stateMutability": "nonpayable",
      "type": "constructor"
    },
    {
      "anonymous": false,
      "inputs": [
        {
          "indexed": true,
          "internalType": "address",
          "name": "owner",
          "type": "address"
        },
        {
          "indexed": true,
          "internalType": "address",
          "name": "approved",
          "type": "address"
        },
        {
          "indexed": true,
          "internalType": "uint256",
          "name": "tokenId",
          "type": "uint256"
        }
      ],
      "name": "Approval",
      "type": "event"
    },
    {
      "anonymous": false,
      "inputs": [
        {
          "indexed": true,
          "internalType": "address",
          "name": "owner",
          "type": "address"
        },
        {
          "indexed": true,
          "internalType": "address",
          "name": "operator",
          "type": "address"
        },
        {
          "indexed": false,
          "internalType": "bool",
          "name": "approved",
          "type": "bool"
        }
      ],
      "name": "ApprovalForAll",
      "type": "event"
    },
    {
      "anonymous": false,
      "inputs": [
        {
          "indexed": false,
          "internalType": "address payable",
          "name": "author",
          "type": "address"
        },
        {
          "indexed": false,
          "internalType": "uint256",
          "name": "price",
          "type": "uint256"
        },
        {
          "indexed": false,
          "internalType": "string",
          "name": "color",
          "type": "string"
        },
        {
          "indexed": false,
          "internalType": "bool",
          "name": "isSell",
          "type": "bool"
        }
      ],
      "name": "TokenCreated",
      "type": "event"
    },
    {
      "anonymous": false,
      "inputs": [
        {
          "indexed": true,
          "internalType": "address",
          "name": "from",
          "type": "address"
        },
        {
          "indexed": true,
          "internalType": "address",
          "name": "to",
          "type": "address"
        },
        {
          "indexed": true,
          "internalType": "uint256",
          "name": "tokenId",
          "type": "uint256"
        }
      ],
      "name": "Transfer",
      "type": "event"
    },
    {
      "inputs": [
        {
          "internalType": "address",
          "name": "to",
          "type": "address"
        },
        {
          "internalType": "uint256",
          "name": "tokenId",
          "type": "uint256"
        }
      ],
      "name": "approve",
      "outputs": [],
      "stateMutability": "nonpayable",
      "type": "function"
    },
    {
      "inputs": [
        {
          "internalType": "address",
          "name": "owner",
          "type": "address"
        }
      ],
      "name": "balanceOf",
      "outputs": [
        {
          "internalType": "uint256",
          "name": "",
          "type": "uint256"
        }
      ],
      "stateMutability": "view",
      "type": "function",
      "constant": true
    },
    {
      "inputs": [
        {
          "internalType": "uint256",
          "name": "tokenId",
          "type": "uint256"
        }
      ],
      "name": "getApproved",
      "outputs": [
        {
          "internalType": "address",
          "name": "",
          "type": "address"
        }
      ],
      "stateMutability": "view",
      "type": "function",
      "constant": true
    },
    {
      "inputs": [
        {
          "internalType": "address",
          "name": "owner",
          "type": "address"
        },
        {
          "internalType": "address",
          "name": "operator",
          "type": "address"
        }
      ],
      "name": "isApprovedForAll",
      "outputs": [
        {
          "internalType": "bool",
          "name": "",
          "type": "bool"
        }
      ],
      "stateMutability": "view",
      "type": "function",
      "constant": true
    },
    {
      "inputs": [],
      "name": "name",
      "outputs": [
        {
          "internalType": "string",
          "name": "",
          "type": "string"
        }
      ],
      "stateMutability": "view",
      "type": "function",
      "constant": true
    },
    {
      "inputs": [
        {
          "internalType": "uint256",
          "name": "tokenId",
          "type": "uint256"
        }
      ],
      "name": "ownerOf",
      "outputs": [
        {
          "internalType": "address",
          "name": "",
          "type": "address"
        }
      ],
      "stateMutability": "view",
      "type": "function",
      "constant": true
    },
    {
      "inputs": [
        {
          "internalType": "address",
          "name": "from",
          "type": "address"
        },
        {
          "internalType": "address",
          "name": "to",
          "type": "address"
        },
        {
          "internalType": "uint256",
          "name": "tokenId",
          "type": "uint256"
        }
      ],
      "name": "safeTransferFrom",
      "outputs": [],
      "stateMutability": "nonpayable",
      "type": "function"
    },
    {
      "inputs": [
        {
          "internalType": "address",
          "name": "from",
          "type": "address"
        },
        {
          "internalType": "address",
          "name": "to",
          "type": "address"
        },
        {
          "internalType": "uint256",
          "name": "tokenId",
          "type": "uint256"
        },
        {
          "internalType": "bytes",
          "name": "_data",
          "type": "bytes"
        }
      ],
      "name": "safeTransferFrom",
      "outputs": [],
      "stateMutability": "nonpayable",
      "type": "function"
    },
    {
      "inputs": [
        {
          "internalType": "address",
          "name": "operator",
          "type": "address"
        },
        {
          "internalType": "bool",
          "name": "approved",
          "type": "bool"
        }
      ],
      "name": "setApprovalForAll",
      "outputs": [],
      "stateMutability": "nonpayable",
      "type": "function"
    },
    {
      "inputs": [
        {
          "internalType": "bytes4",
          "name": "interfaceId",
          "type": "bytes4"
        }
      ],
      "name": "supportsInterface",
      "outputs": [
        {
          "internalType": "bool",
          "name": "",
          "type": "bool"
        }
      ],
      "stateMutability": "view",
      "type": "function",
      "constant": true
    },
    {
      "inputs": [],
      "name": "symbol",
      "outputs": [
        {
          "internalType": "string",
          "name": "",
          "type": "string"
        }
      ],
      "stateMutability": "view",
      "type": "function",
      "constant": true
    },
    {
      "inputs": [
        {
          "internalType": "uint256",
          "name": "tokenId",
          "type": "uint256"
        }
      ],
      "name": "tokenURI",
      "outputs": [
        {
          "internalType": "string",
          "name": "",
          "type": "string"
        }
      ],
      "stateMutability": "view",
      "type": "function",
      "constant": true
    },
    {
      "inputs": [
        {
          "internalType": "uint256",
          "name": "",
          "type": "uint256"
        }
      ],
      "name": "tokens",
      "outputs": [
        {
          "internalType": "address payable",
          "name": "author",
          "type": "address"
        },
        {
          "internalType": "uint256",
          "name": "price",
          "type": "uint256"
        },
        {
          "internalType": "string",
          "name": "color",
          "type": "string"
        },
        {
          "internalType": "bool",
          "name": "isSell",
          "type": "bool"
        }
      ],
      "stateMutability": "view",
      "type": "function",
      "constant": true
    },
    {
      "inputs": [
        {
          "internalType": "address",
          "name": "from",
          "type": "address"
        },
        {
          "internalType": "address",
          "name": "to",
          "type": "address"
        },
        {
          "internalType": "uint256",
          "name": "tokenId",
          "type": "uint256"
        }
      ],
      "name": "transferFrom",
      "outputs": [],
      "stateMutability": "nonpayable",
      "type": "function"
    },
    {
      "inputs": [
        {
          "internalType": "string",
          "name": "_color",
          "type": "string"
        }
      ],
      "name": "mint",
      "outputs": [],
      "stateMutability": "nonpayable",
      "type": "function"
    },
    {
      "inputs": [],
      "name": "totalSupply",
      "outputs": [
        {
          "internalType": "uint256",
          "name": "",
          "type": "uint256"
        }
      ],
      "stateMutability": "view",
      "type": "function",
      "constant": true
    },
    {
      "inputs": [
        {
          "internalType": "uint256",
          "name": "_id",
          "type": "uint256"
        },
        {
          "internalType": "uint256",
          "name": "_price",
          "type": "uint256"
        }
      ],
      "name": "changePrice",
      "outputs": [],
      "stateMutability": "nonpayable",
      "type": "function"
    },
    {
      "inputs": [
        {
          "internalType": "uint256",
          "name": "_id",
          "type": "uint256"
        }
      ],
      "name": "changeSellStatus",
      "outputs": [],
      "stateMutability": "nonpayable",
      "type": "function"
    },
    {
      "inputs": [
        {
          "internalType": "uint256",
          "name": "_id",
          "type": "uint256"
        }
      ],
      "name": "buy",
      "outputs": [],
      "stateMutability": "payable",
      "type": "function",
      "payable": true
    }
  ],
  "bytecode": "0x60806040523480156200001157600080fd5b506040518060400160405280600581526020017f436f6c6f720000000000000000000000000000000000000000000000000000008152506040518060400160405280600581526020017f434f4c4f52000000000000000000000000000000000000000000000000000000815250816000908051906020019062000096929190620000b8565b508060019080519060200190620000af929190620000b8565b505050620001cd565b828054620000c69062000197565b90600052602060002090601f016020900481019282620000ea576000855562000136565b82601f106200010557805160ff191683800117855562000136565b8280016001018555821562000136579182015b828111156200013557825182559160200191906001019062000118565b5b50905062000145919062000149565b5090565b5b80821115620001645760008160009055506001016200014a565b5090565b7f4e487b7100000000000000000000000000000000000000000000000000000000600052602260045260246000fd5b60006002820490506001821680620001b057607f821691505b60208210811415620001c757620001c662000168565b5b50919050565b61338b80620001dd6000396000f3fe6080604052600436106101145760003560e01c806370a08231116100a0578063c87b56dd11610064578063c87b56dd146103c4578063d85d3d2714610401578063d96a094a1461042a578063dbe531f214610446578063e985e9c51461046f57610114565b806370a08231146102e157806395d89b411461031e578063a22cb46514610349578063b3de019c14610372578063b88d4fde1461039b57610114565b806318160ddd116100e757806318160ddd146101e757806323b872dd1461021257806342842e0e1461023b5780634f64b2be146102645780636352211e146102a457610114565b806301ffc9a71461011957806306fdde0314610156578063081812fc14610181578063095ea7b3146101be575b600080fd5b34801561012557600080fd5b50610140600480360381019061013b9190612024565b6104ac565b60405161014d919061206c565b60405180910390f35b34801561016257600080fd5b5061016b61058e565b6040516101789190612120565b60405180910390f35b34801561018d57600080fd5b506101a860048036038101906101a39190612178565b610620565b6040516101b591906121e6565b60405180910390f35b3480156101ca57600080fd5b506101e560048036038101906101e0919061222d565b6106a5565b005b3480156101f357600080fd5b506101fc6107bd565b604051610209919061227c565b60405180910390f35b34801561021e57600080fd5b5061023960048036038101906102349190612297565b6107ca565b005b34801561024757600080fd5b50610262600480360381019061025d9190612297565b61082a565b005b34801561027057600080fd5b5061028b60048036038101906102869190612178565b61084a565b60405161029b949392919061230b565b60405180910390f35b3480156102b057600080fd5b506102cb60048036038101906102c69190612178565b61093f565b6040516102d891906121e6565b60405180910390f35b3480156102ed57600080fd5b5061030860048036038101906103039190612357565b6109f1565b604051610315919061227c565b60405180910390f35b34801561032a57600080fd5b50610333610aa9565b6040516103409190612120565b60405180910390f35b34801561035557600080fd5b50610370600480360381019061036b91906123b0565b610b3b565b005b34801561037e57600080fd5b50610399600480360381019061039491906123f0565b610cbc565b005b3480156103a757600080fd5b506103c260048036038101906103bd9190612565565b610e20565b005b3480156103d057600080fd5b506103eb60048036038101906103e69190612178565b610e82565b6040516103f89190612120565b60405180910390f35b34801561040d57600080fd5b5061042860048036038101906104239190612689565b610f29565b005b610444600480360381019061043f9190612178565b6110dd565b005b34801561045257600080fd5b5061046d60048036038101906104689190612178565b611312565b005b34801561047b57600080fd5b50610496600480360381019061049191906126d2565b61145f565b6040516104a3919061206c565b60405180910390f35b60007f80ac58cd000000000000000000000000000000000000000000000000000000007bffffffffffffffffffffffffffffffffffffffffffffffffffffffff1916827bffffffffffffffffffffffffffffffffffffffffffffffffffffffff1916148061057757507f5b5e139f000000000000000000000000000000000000000000000000000000007bffffffffffffffffffffffffffffffffffffffffffffffffffffffff1916827bffffffffffffffffffffffffffffffffffffffffffffffffffffffff1916145b806105875750610586826114f3565b5b9050919050565b60606000805461059d90612741565b80601f01602080910402602001604051908101604052809291908181526020018280546105c990612741565b80156106165780601f106105eb57610100808354040283529160200191610616565b820191906000526020600020905b8154815290600101906020018083116105f957829003601f168201915b5050505050905090565b600061062b8261155d565b61066a576040517f08c379a0000000000000000000000000000000000000000000000000000000008152600401610661906127e5565b60405180910390fd5b6004600083815260200190815260200160002060009054906101000a900473ffffffffffffffffffffffffffffffffffffffff169050919050565b60006106b08261093f565b90508073ffffffffffffffffffffffffffffffffffffffff168373ffffffffffffffffffffffffffffffffffffffff161415610721576040517f08c379a000000000000000000000000000000000000000000000000000000000815260040161071890612877565b60405180910390fd5b8073ffffffffffffffffffffffffffffffffffffffff166107406115c9565b73ffffffffffffffffffffffffffffffffffffffff16148061076f575061076e816107696115c9565b61145f565b5b6107ae576040517f08c379a00000000000000000000000000000000000000000000000000000000081526004016107a590612909565b60405180910390fd5b6107b883836115d1565b505050565b6000600680549050905090565b6107db6107d56115c9565b8261168a565b61081a576040517f08c379a00000000000000000000000000000000000000000000000000000000081526004016108119061299b565b60405180910390fd5b610825838383611768565b505050565b61084583838360405180602001604052806000815250610e20565b505050565b6006818154811061085a57600080fd5b90600052602060002090600402016000915090508060000160009054906101000a900473ffffffffffffffffffffffffffffffffffffffff16908060010154908060020180546108a990612741565b80601f01602080910402602001604051908101604052809291908181526020018280546108d590612741565b80156109225780601f106108f757610100808354040283529160200191610922565b820191906000526020600020905b81548152906001019060200180831161090557829003601f168201915b5050505050908060030160009054906101000a900460ff16905084565b6000806002600084815260200190815260200160002060009054906101000a900473ffffffffffffffffffffffffffffffffffffffff169050600073ffffffffffffffffffffffffffffffffffffffff168173ffffffffffffffffffffffffffffffffffffffff1614156109e8576040517f08c379a00000000000000000000000000000000000000000000000000000000081526004016109df90612a2d565b60405180910390fd5b80915050919050565b60008073ffffffffffffffffffffffffffffffffffffffff168273ffffffffffffffffffffffffffffffffffffffff161415610a62576040517f08c379a0000000000000000000000000000000000000000000000000000000008152600401610a5990612abf565b60405180910390fd5b600360008373ffffffffffffffffffffffffffffffffffffffff1673ffffffffffffffffffffffffffffffffffffffff168152602001908152602001600020549050919050565b606060018054610ab890612741565b80601f0160208091040260200160405190810160405280929190818152602001828054610ae490612741565b8015610b315780601f10610b0657610100808354040283529160200191610b31565b820191906000526020600020905b815481529060010190602001808311610b1457829003601f168201915b5050505050905090565b610b436115c9565b73ffffffffffffffffffffffffffffffffffffffff168273ffffffffffffffffffffffffffffffffffffffff161415610bb1576040517f08c379a0000000000000000000000000000000000000000000000000000000008152600401610ba890612b2b565b60405180910390fd5b8060056000610bbe6115c9565b73ffffffffffffffffffffffffffffffffffffffff1673ffffffffffffffffffffffffffffffffffffffff16815260200190815260200160002060008473ffffffffffffffffffffffffffffffffffffffff1673ffffffffffffffffffffffffffffffffffffffff16815260200190815260200160002060006101000a81548160ff0219169083151502179055508173ffffffffffffffffffffffffffffffffffffffff16610c6b6115c9565b73ffffffffffffffffffffffffffffffffffffffff167f17307eab39ab6107e8899845ad3d59bd9653f200f220920489ca2b5937696c3183604051610cb0919061206c565b60405180910390a35050565b81600760068281548110610cd357610cd2612b4b565b5b9060005260206000209060040201600201604051610cf19190612c19565b908152602001604051809103902060009054906101000a900460ff16610d1657600080fd5b8260068181548110610d2b57610d2a612b4b565b5b906000526020600020906004020160000160009054906101000a900473ffffffffffffffffffffffffffffffffffffffff1673ffffffffffffffffffffffffffffffffffffffff163373ffffffffffffffffffffffffffffffffffffffff1614610d9457600080fd5b600083118015610dc9575060068481548110610db357610db2612b4b565b5b9060005260206000209060040201600101548314155b610dd257600080fd5b60008410158015610de7575060068054905084105b610df057600080fd5b8260068581548110610e0557610e04612b4b565b5b90600052602060002090600402016001018190555050505050565b610e31610e2b6115c9565b8361168a565b610e70576040517f08c379a0000000000000000000000000000000000000000000000000000000008152600401610e679061299b565b60405180910390fd5b610e7c848484846119c4565b50505050565b6060610e8d8261155d565b610ecc576040517f08c379a0000000000000000000000000000000000000000000000000000000008152600401610ec390612ca2565b60405180910390fd5b6000610ed6611a20565b90506000815111610ef65760405180602001604052806000815250610f21565b80610f0084611a37565b604051602001610f11929190612cf3565b6040516020818303038152906040525b915050919050565b600781604051610f399190612d17565b908152602001604051809103902060009054906101000a900460ff1615610f5f57600080fd5b600660405180608001604052803373ffffffffffffffffffffffffffffffffffffffff1681526020016000815260200183815260200160001515815250908060018154018082558091505060019003906000526020600020906004020160009091909190915060008201518160000160006101000a81548173ffffffffffffffffffffffffffffffffffffffff021916908373ffffffffffffffffffffffffffffffffffffffff160217905550602082015181600101556040820151816002019080519060200190611032929190611f15565b5060608201518160030160006101000a81548160ff021916908315150217905550505061106433600680549050611b98565b60016007826040516110769190612d17565b908152602001604051809103902060006101000a81548160ff0219169083151502179055507f9c0dd83dabd81c89409d28fce8dc56f1ad17545e5dd23251827e0f866b3ffac23360008360006040516110d29493929190612d73565b60405180910390a150565b806007600682815481106110f4576110f3612b4b565b5b90600052602060002090600402016002016040516111129190612c19565b908152602001604051809103902060009054906101000a900460ff1661113757600080fd5b6006828154811061114b5761114a612b4b565b5b906000526020600020906004020160000160009054906101000a900473ffffffffffffffffffffffffffffffffffffffff1673ffffffffffffffffffffffffffffffffffffffff163373ffffffffffffffffffffffffffffffffffffffff1614156111b557600080fd5b600682815481106111c9576111c8612b4b565b5b906000526020600020906004020160000160009054906101000a900473ffffffffffffffffffffffffffffffffffffffff1673ffffffffffffffffffffffffffffffffffffffff166108fc349081150290604051600060405180830381858888f19350505050158015611240573d6000803e3d6000fd5b50336006838154811061125657611255612b4b565b5b906000526020600020906004020160000160006101000a81548173ffffffffffffffffffffffffffffffffffffffff021916908373ffffffffffffffffffffffffffffffffffffffff1602179055506000600683815481106112bb576112ba612b4b565b5b9060005260206000209060040201600101819055506000600683815481106112e6576112e5612b4b565b5b906000526020600020906004020160030160006101000a81548160ff0219169083151502179055505050565b8060076006828154811061132957611328612b4b565b5b90600052602060002090600402016002016040516113479190612c19565b908152602001604051809103902060009054906101000a900460ff1661136c57600080fd5b816006818154811061138157611380612b4b565b5b906000526020600020906004020160000160009054906101000a900473ffffffffffffffffffffffffffffffffffffffff1673ffffffffffffffffffffffffffffffffffffffff163373ffffffffffffffffffffffffffffffffffffffff16146113ea57600080fd5b600683815481106113fe576113fd612b4b565b5b906000526020600020906004020160030160009054906101000a900460ff16156006848154811061143257611431612b4b565b5b906000526020600020906004020160030160006101000a81548160ff021916908315150217905550505050565b6000600560008473ffffffffffffffffffffffffffffffffffffffff1673ffffffffffffffffffffffffffffffffffffffff16815260200190815260200160002060008373ffffffffffffffffffffffffffffffffffffffff1673ffffffffffffffffffffffffffffffffffffffff16815260200190815260200160002060009054906101000a900460ff16905092915050565b60007f01ffc9a7000000000000000000000000000000000000000000000000000000007bffffffffffffffffffffffffffffffffffffffffffffffffffffffff1916827bffffffffffffffffffffffffffffffffffffffffffffffffffffffff1916149050919050565b60008073ffffffffffffffffffffffffffffffffffffffff166002600084815260200190815260200160002060009054906101000a900473ffffffffffffffffffffffffffffffffffffffff1673ffffffffffffffffffffffffffffffffffffffff1614159050919050565b600033905090565b816004600083815260200190815260200160002060006101000a81548173ffffffffffffffffffffffffffffffffffffffff021916908373ffffffffffffffffffffffffffffffffffffffff160217905550808273ffffffffffffffffffffffffffffffffffffffff166116448361093f565b73ffffffffffffffffffffffffffffffffffffffff167f8c5be1e5ebec7d5bd14f71427d1e84f3dd0314c0f7b2291e5b200ac8c7c3b92560405160405180910390a45050565b60006116958261155d565b6116d4576040517f08c379a00000000000000000000000000000000000000000000000000000000081526004016116cb90612e31565b60405180910390fd5b60006116df8361093f565b90508073ffffffffffffffffffffffffffffffffffffffff168473ffffffffffffffffffffffffffffffffffffffff16148061174e57508373ffffffffffffffffffffffffffffffffffffffff1661173684610620565b73ffffffffffffffffffffffffffffffffffffffff16145b8061175f575061175e818561145f565b5b91505092915050565b8273ffffffffffffffffffffffffffffffffffffffff166117888261093f565b73ffffffffffffffffffffffffffffffffffffffff16146117de576040517f08c379a00000000000000000000000000000000000000000000000000000000081526004016117d590612ec3565b60405180910390fd5b600073ffffffffffffffffffffffffffffffffffffffff168273ffffffffffffffffffffffffffffffffffffffff16141561184e576040517f08c379a000000000000000000000000000000000000000000000000000000000815260040161184590612f55565b60405180910390fd5b611859838383611d66565b6118646000826115d1565b6001600360008573ffffffffffffffffffffffffffffffffffffffff1673ffffffffffffffffffffffffffffffffffffffff16815260200190815260200160002060008282546118b49190612fa4565b925050819055506001600360008473ffffffffffffffffffffffffffffffffffffffff1673ffffffffffffffffffffffffffffffffffffffff168152602001908152602001600020600082825461190b9190612fd8565b92505081905550816002600083815260200190815260200160002060006101000a81548173ffffffffffffffffffffffffffffffffffffffff021916908373ffffffffffffffffffffffffffffffffffffffff160217905550808273ffffffffffffffffffffffffffffffffffffffff168473ffffffffffffffffffffffffffffffffffffffff167fddf252ad1be2c89b69c2b068fc378daa952ba7f163c4a11628f55a4df523b3ef60405160405180910390a4505050565b6119cf848484611768565b6119db84848484611d6b565b611a1a576040517f08c379a0000000000000000000000000000000000000000000000000000000008152600401611a11906130a0565b60405180910390fd5b50505050565b606060405180602001604052806000815250905090565b60606000821415611a7f576040518060400160405280600181526020017f30000000000000000000000000000000000000000000000000000000000000008152509050611b93565b600082905060005b60008214611ab1578080611a9a906130c0565b915050600a82611aaa9190613138565b9150611a87565b60008167ffffffffffffffff811115611acd57611acc61243a565b5b6040519080825280601f01601f191660200182016040528015611aff5781602001600182028036833780820191505090505b5090505b60008514611b8c57600182611b189190612fa4565b9150600a85611b279190613169565b6030611b339190612fd8565b60f81b818381518110611b4957611b48612b4b565b5b60200101907effffffffffffffffffffffffffffffffffffffffffffffffffffffffffffff1916908160001a905350600a85611b859190613138565b9450611b03565b8093505050505b919050565b600073ffffffffffffffffffffffffffffffffffffffff168273ffffffffffffffffffffffffffffffffffffffff161415611c08576040517f08c379a0000000000000000000000000000000000000000000000000000000008152600401611bff906131e6565b60405180910390fd5b611c118161155d565b15611c51576040517f08c379a0000000000000000000000000000000000000000000000000000000008152600401611c4890613252565b60405180910390fd5b611c5d60008383611d66565b6001600360008473ffffffffffffffffffffffffffffffffffffffff1673ffffffffffffffffffffffffffffffffffffffff1681526020019081526020016000206000828254611cad9190612fd8565b92505081905550816002600083815260200190815260200160002060006101000a81548173ffffffffffffffffffffffffffffffffffffffff021916908373ffffffffffffffffffffffffffffffffffffffff160217905550808273ffffffffffffffffffffffffffffffffffffffff16600073ffffffffffffffffffffffffffffffffffffffff167fddf252ad1be2c89b69c2b068fc378daa952ba7f163c4a11628f55a4df523b3ef60405160405180910390a45050565b505050565b6000611d8c8473ffffffffffffffffffffffffffffffffffffffff16611f02565b15611ef5578373ffffffffffffffffffffffffffffffffffffffff1663150b7a02611db56115c9565b8786866040518563ffffffff1660e01b8152600401611dd794939291906132c7565b602060405180830381600087803b158015611df157600080fd5b505af1925050508015611e2257506040513d601f19601f82011682018060405250810190611e1f9190613328565b60015b611ea5573d8060008114611e52576040519150601f19603f3d011682016040523d82523d6000602084013e611e57565b606091505b50600081511415611e9d576040517f08c379a0000000000000000000000000000000000000000000000000000000008152600401611e94906130a0565b60405180910390fd5b805181602001fd5b63150b7a0260e01b7bffffffffffffffffffffffffffffffffffffffffffffffffffffffff1916817bffffffffffffffffffffffffffffffffffffffffffffffffffffffff191614915050611efa565b600190505b949350505050565b600080823b905060008111915050919050565b828054611f2190612741565b90600052602060002090601f016020900481019282611f435760008555611f8a565b82601f10611f5c57805160ff1916838001178555611f8a565b82800160010185558215611f8a579182015b82811115611f89578251825591602001919060010190611f6e565b5b509050611f979190611f9b565b5090565b5b80821115611fb4576000816000905550600101611f9c565b5090565b6000604051905090565b600080fd5b600080fd5b60007fffffffff0000000000000000000000000000000000000000000000000000000082169050919050565b61200181611fcc565b811461200c57600080fd5b50565b60008135905061201e81611ff8565b92915050565b60006020828403121561203a57612039611fc2565b5b60006120488482850161200f565b91505092915050565b60008115159050919050565b61206681612051565b82525050565b6000602082019050612081600083018461205d565b92915050565b600081519050919050565b600082825260208201905092915050565b60005b838110156120c15780820151818401526020810190506120a6565b838111156120d0576000848401525b50505050565b6000601f19601f8301169050919050565b60006120f282612087565b6120fc8185612092565b935061210c8185602086016120a3565b612115816120d6565b840191505092915050565b6000602082019050818103600083015261213a81846120e7565b905092915050565b6000819050919050565b61215581612142565b811461216057600080fd5b50565b6000813590506121728161214c565b92915050565b60006020828403121561218e5761218d611fc2565b5b600061219c84828501612163565b91505092915050565b600073ffffffffffffffffffffffffffffffffffffffff82169050919050565b60006121d0826121a5565b9050919050565b6121e0816121c5565b82525050565b60006020820190506121fb60008301846121d7565b92915050565b61220a816121c5565b811461221557600080fd5b50565b60008135905061222781612201565b92915050565b6000806040838503121561224457612243611fc2565b5b600061225285828601612218565b925050602061226385828601612163565b9150509250929050565b61227681612142565b82525050565b6000602082019050612291600083018461226d565b92915050565b6000806000606084860312156122b0576122af611fc2565b5b60006122be86828701612218565b93505060206122cf86828701612218565b92505060406122e086828701612163565b9150509250925092565b60006122f5826121a5565b9050919050565b612305816122ea565b82525050565b600060808201905061232060008301876122fc565b61232d602083018661226d565b818103604083015261233f81856120e7565b905061234e606083018461205d565b95945050505050565b60006020828403121561236d5761236c611fc2565b5b600061237b84828501612218565b91505092915050565b61238d81612051565b811461239857600080fd5b50565b6000813590506123aa81612384565b92915050565b600080604083850312156123c7576123c6611fc2565b5b60006123d585828601612218565b92505060206123e68582860161239b565b9150509250929050565b6000806040838503121561240757612406611fc2565b5b600061241585828601612163565b925050602061242685828601612163565b9150509250929050565b600080fd5b600080fd5b7f4e487b7100000000000000000000000000000000000000000000000000000000600052604160045260246000fd5b612472826120d6565b810181811067ffffffffffffffff821117156124915761249061243a565b5b80604052505050565b60006124a4611fb8565b90506124b08282612469565b919050565b600067ffffffffffffffff8211156124d0576124cf61243a565b5b6124d9826120d6565b9050602081019050919050565b82818337600083830152505050565b6000612508612503846124b5565b61249a565b90508281526020810184848401111561252457612523612435565b5b61252f8482856124e6565b509392505050565b600082601f83011261254c5761254b612430565b5b813561255c8482602086016124f5565b91505092915050565b6000806000806080858703121561257f5761257e611fc2565b5b600061258d87828801612218565b945050602061259e87828801612218565b93505060406125af87828801612163565b925050606085013567ffffffffffffffff8111156125d0576125cf611fc7565b5b6125dc87828801612537565b91505092959194509250565b600067ffffffffffffffff8211156126035761260261243a565b5b61260c826120d6565b9050602081019050919050565b600061262c612627846125e8565b61249a565b90508281526020810184848401111561264857612647612435565b5b6126538482856124e6565b509392505050565b600082601f8301126126705761266f612430565b5b8135612680848260208601612619565b91505092915050565b60006020828403121561269f5761269e611fc2565b5b600082013567ffffffffffffffff8111156126bd576126bc611fc7565b5b6126c98482850161265b565b91505092915050565b600080604083850312156126e9576126e8611fc2565b5b60006126f785828601612218565b925050602061270885828601612218565b9150509250929050565b7f4e487b7100000000000000000000000000000000000000000000000000000000600052602260045260246000fd5b6000600282049050600182168061275957607f821691505b6020821081141561276d5761276c612712565b5b50919050565b7f4552433732313a20617070726f76656420717565727920666f72206e6f6e657860008201527f697374656e7420746f6b656e0000000000000000000000000000000000000000602082015250565b60006127cf602c83612092565b91506127da82612773565b604082019050919050565b600060208201905081810360008301526127fe816127c2565b9050919050565b7f4552433732313a20617070726f76616c20746f2063757272656e74206f776e6560008201527f7200000000000000000000000000000000000000000000000000000000000000602082015250565b6000612861602183612092565b915061286c82612805565b604082019050919050565b6000602082019050818103600083015261289081612854565b9050919050565b7f4552433732313a20617070726f76652063616c6c6572206973206e6f74206f7760008201527f6e6572206e6f7220617070726f76656420666f7220616c6c0000000000000000602082015250565b60006128f3603883612092565b91506128fe82612897565b604082019050919050565b60006020820190508181036000830152612922816128e6565b9050919050565b7f4552433732313a207472616e736665722063616c6c6572206973206e6f74206f60008201527f776e6572206e6f7220617070726f766564000000000000000000000000000000602082015250565b6000612985603183612092565b915061299082612929565b604082019050919050565b600060208201905081810360008301526129b481612978565b9050919050565b7f4552433732313a206f776e657220717565727920666f72206e6f6e657869737460008201527f656e7420746f6b656e0000000000000000000000000000000000000000000000602082015250565b6000612a17602983612092565b9150612a22826129bb565b604082019050919050565b60006020820190508181036000830152612a4681612a0a565b9050919050565b7f4552433732313a2062616c616e636520717565727920666f7220746865207a6560008201527f726f206164647265737300000000000000000000000000000000000000000000602082015250565b6000612aa9602a83612092565b9150612ab482612a4d565b604082019050919050565b60006020820190508181036000830152612ad881612a9c565b9050919050565b7f4552433732313a20617070726f766520746f2063616c6c657200000000000000600082015250565b6000612b15601983612092565b9150612b2082612adf565b602082019050919050565b60006020820190508181036000830152612b4481612b08565b9050919050565b7f4e487b7100000000000000000000000000000000000000000000000000000000600052603260045260246000fd5b600081905092915050565b60008190508160005260206000209050919050565b60008154612ba781612741565b612bb18186612b7a565b94506001821660008114612bcc5760018114612bdd57612c10565b60ff19831686528186019350612c10565b612be685612b85565b60005b83811015612c0857815481890152600182019150602081019050612be9565b838801955050505b50505092915050565b6000612c258284612b9a565b915081905092915050565b7f4552433732314d657461646174613a2055524920717565727920666f72206e6f60008201527f6e6578697374656e7420746f6b656e0000000000000000000000000000000000602082015250565b6000612c8c602f83612092565b9150612c9782612c30565b604082019050919050565b60006020820190508181036000830152612cbb81612c7f565b9050919050565b6000612ccd82612087565b612cd78185612b7a565b9350612ce78185602086016120a3565b80840191505092915050565b6000612cff8285612cc2565b9150612d0b8284612cc2565b91508190509392505050565b6000612d238284612cc2565b915081905092915050565b6000819050919050565b6000819050919050565b6000612d5d612d58612d5384612d2e565b612d38565b612142565b9050919050565b612d6d81612d42565b82525050565b6000608082019050612d8860008301876122fc565b612d956020830186612d64565b8181036040830152612da781856120e7565b9050612db6606083018461205d565b95945050505050565b7f4552433732313a206f70657261746f7220717565727920666f72206e6f6e657860008201527f697374656e7420746f6b656e0000000000000000000000000000000000000000602082015250565b6000612e1b602c83612092565b9150612e2682612dbf565b604082019050919050565b60006020820190508181036000830152612e4a81612e0e565b9050919050565b7f4552433732313a207472616e73666572206f6620746f6b656e2074686174206960008201527f73206e6f74206f776e0000000000000000000000000000000000000000000000602082015250565b6000612ead602983612092565b9150612eb882612e51565b604082019050919050565b60006020820190508181036000830152612edc81612ea0565b9050919050565b7f4552433732313a207472616e7366657220746f20746865207a65726f2061646460008201527f7265737300000000000000000000000000000000000000000000000000000000602082015250565b6000612f3f602483612092565b9150612f4a82612ee3565b604082019050919050565b60006020820190508181036000830152612f6e81612f32565b9050919050565b7f4e487b7100000000000000000000000000000000000000000000000000000000600052601160045260246000fd5b6000612faf82612142565b9150612fba83612142565b925082821015612fcd57612fcc612f75565b5b828203905092915050565b6000612fe382612142565b9150612fee83612142565b9250827fffffffffffffffffffffffffffffffffffffffffffffffffffffffffffffffff0382111561302357613022612f75565b5b828201905092915050565b7f4552433732313a207472616e7366657220746f206e6f6e20455243373231526560008201527f63656976657220696d706c656d656e7465720000000000000000000000000000602082015250565b600061308a603283612092565b91506130958261302e565b604082019050919050565b600060208201905081810360008301526130b98161307d565b9050919050565b60006130cb82612142565b91507fffffffffffffffffffffffffffffffffffffffffffffffffffffffffffffffff8214156130fe576130fd612f75565b5b600182019050919050565b7f4e487b7100000000000000000000000000000000000000000000000000000000600052601260045260246000fd5b600061314382612142565b915061314e83612142565b92508261315e5761315d613109565b5b828204905092915050565b600061317482612142565b915061317f83612142565b92508261318f5761318e613109565b5b828206905092915050565b7f4552433732313a206d696e7420746f20746865207a65726f2061646472657373600082015250565b60006131d0602083612092565b91506131db8261319a565b602082019050919050565b600060208201905081810360008301526131ff816131c3565b9050919050565b7f4552433732313a20746f6b656e20616c7265616479206d696e74656400000000600082015250565b600061323c601c83612092565b915061324782613206565b602082019050919050565b6000602082019050818103600083015261326b8161322f565b9050919050565b600081519050919050565b600082825260208201905092915050565b600061329982613272565b6132a3818561327d565b93506132b38185602086016120a3565b6132bc816120d6565b840191505092915050565b60006080820190506132dc60008301876121d7565b6132e960208301866121d7565b6132f6604083018561226d565b8181036060830152613308818461328e565b905095945050505050565b60008151905061332281611ff8565b92915050565b60006020828403121561333e5761333d611fc2565b5b600061334c84828501613313565b9150509291505056fea26469706673582212201c8b39e4c7bc17304c85ab0d830e0f3df8e25d0f467831b3876cfd497c2797bd64736f6c63430008090033",
  "immutableReferences": {},
  "source": "// SPDX-License-Identifier: MIT\r\npragma solidity ^0.8.0;\r\n\r\nimport \"@openzeppelin/contracts/token/ERC721/ERC721.sol\";\r\n\r\ncontract Color is ERC721 {\r\n    struct Token {\r\n        address payable author;\r\n        uint price;\r\n        string color;\r\n        bool isSell;\r\n    }\r\n\r\n    event TokenCreated(\r\n        address payable author,\r\n        uint price, \r\n        string color, \r\n        bool isSell\r\n    );\r\n\r\n    Token[] public tokens;\r\n    mapping(string => bool) _colorExists;\r\n\r\n    constructor() ERC721(\"Color\", \"COLOR\") {}\r\n\r\n    modifier tokenExist(uint _id){\r\n        require(_colorExists[tokens[_id].color]);\r\n        _;\r\n    }\r\n\r\n    modifier onlyOwner(uint _id){\r\n        require(msg.sender == tokens[_id].author);\r\n        _;\r\n    }\r\n\r\n    function mint(string memory _color) public {\r\n        require(!_colorExists[_color]);\r\n        \r\n        tokens.push(Token({\r\n            author: payable(msg.sender),\r\n            price:   0,\r\n            color:  _color,\r\n            isSell: false\r\n            }));\r\n        _mint(msg.sender, tokens.length);\r\n        _colorExists[_color] = true;\r\n\r\n        emit TokenCreated(payable(msg.sender), 0, _color, false);\r\n    }\r\n\r\n    function totalSupply() public view returns(uint) {\r\n        return tokens.length;\r\n    }\r\n\r\n    function changePrice(uint _id, uint _price) public tokenExist(_id) onlyOwner(_id) {\r\n        require(_price > 0 && _price != tokens[_id].price);\r\n        require(_id >= 0 && _id < tokens.length);\r\n        tokens[_id].price = _price;\r\n    }\r\n\r\n    function changeSellStatus(uint _id) public tokenExist(_id) onlyOwner(_id) {\r\n        tokens[_id].isSell = !tokens[_id].isSell;\r\n    }\r\n\r\n    function buy(uint _id) public payable tokenExist(_id) {\r\n        require(msg.sender != tokens[_id].author);\r\n        tokens[_id].author.transfer(msg.value);\r\n        tokens[_id].author = payable(msg.sender);\r\n        tokens[_id].price = 0;\r\n        tokens[_id].isSell = false;\r\n    }\r\n}",
  "sourcePath": "C:\\Solidity\\Projects\\nft\\src\\contracts\\Color.sol",
  "compiler": {
    "name": "solc",
    "version": "0.8.9+commit.e5eed63a.Emscripten.clang"
  },
  "schemaVersion": "3.4.3",
  "updatedAt": "2021-10-18T09:21:58.650Z",
  "networkType": "ethereum",
  "devdoc": {
    "kind": "dev",
    "methods": {
      "approve(address,uint256)": {
        "details": "See {IERC721-approve}."
      },
      "balanceOf(address)": {
        "details": "See {IERC721-balanceOf}."
      },
      "getApproved(uint256)": {
        "details": "See {IERC721-getApproved}."
      },
      "isApprovedForAll(address,address)": {
        "details": "See {IERC721-isApprovedForAll}."
      },
      "name()": {
        "details": "See {IERC721Metadata-name}."
      },
      "ownerOf(uint256)": {
        "details": "See {IERC721-ownerOf}."
      },
      "safeTransferFrom(address,address,uint256)": {
        "details": "See {IERC721-safeTransferFrom}."
      },
      "safeTransferFrom(address,address,uint256,bytes)": {
        "details": "See {IERC721-safeTransferFrom}."
      },
      "setApprovalForAll(address,bool)": {
        "details": "See {IERC721-setApprovalForAll}."
      },
      "supportsInterface(bytes4)": {
        "details": "See {IERC165-supportsInterface}."
      },
      "symbol()": {
        "details": "See {IERC721Metadata-symbol}."
      },
      "tokenURI(uint256)": {
        "details": "See {IERC721Metadata-tokenURI}."
      },
      "transferFrom(address,address,uint256)": {
        "details": "See {IERC721-transferFrom}."
      }
    },
    "version": 1
  },
  "userdoc": {
    "kind": "user",
    "methods": {},
    "version": 1
  }
}