{
    "contractName": "Color",
    "abi": [
        {
            "inputs": [],
            "stateMutability": "nonpayable",
            "type": "constructor"
        },
        {
            "anonymous": false,
            "inputs": [
                {
                    "indexed": true,
                    "internalType": "address",
                    "name": "owner",
                    "type": "address"
                },
                {
                    "indexed": true,
                    "internalType": "address",
                    "name": "approved",
                    "type": "address"
                },
                {
                    "indexed": true,
                    "internalType": "uint256",
                    "name": "tokenId",
                    "type": "uint256"
                }
            ],
            "name": "Approval",
            "type": "event"
        },
        {
            "anonymous": false,
            "inputs": [
                {
                    "indexed": true,
                    "internalType": "address",
                    "name": "owner",
                    "type": "address"
                },
                {
                    "indexed": true,
                    "internalType": "address",
                    "name": "operator",
                    "type": "address"
                },
                {
                    "indexed": false,
                    "internalType": "bool",
                    "name": "approved",
                    "type": "bool"
                }
            ],
            "name": "ApprovalForAll",
            "type": "event"
        },
        {
            "anonymous": false,
            "inputs": [
                {
                    "indexed": true,
                    "internalType": "address",
                    "name": "from",
                    "type": "address"
                },
                {
                    "indexed": true,
                    "internalType": "address",
                    "name": "to",
                    "type": "address"
                },
                {
                    "indexed": true,
                    "internalType": "uint256",
                    "name": "tokenId",
                    "type": "uint256"
                }
            ],
            "name": "Transfer",
            "type": "event"
        },
        {
            "inputs": [
                {
                    "internalType": "address",
                    "name": "to",
                    "type": "address"
                },
                {
                    "internalType": "uint256",
                    "name": "tokenId",
                    "type": "uint256"
                }
            ],
            "name": "approve",
            "outputs": [],
            "stateMutability": "nonpayable",
            "type": "function"
        },
        {
            "inputs": [
                {
                    "internalType": "address",
                    "name": "owner",
                    "type": "address"
                }
            ],
            "name": "balanceOf",
            "outputs": [
                {
                    "internalType": "uint256",
                    "name": "",
                    "type": "uint256"
                }
            ],
            "stateMutability": "view",
            "type": "function"
        },
        {
            "inputs": [
                {
                    "internalType": "uint256",
                    "name": "_id",
                    "type": "uint256"
                }
            ],
            "name": "buy",
            "outputs": [],
            "stateMutability": "payable",
            "type": "function"
        },
        {
            "inputs": [
                {
                    "internalType": "uint256",
                    "name": "_id",
                    "type": "uint256"
                }
            ],
            "name": "changeStatusSell",
            "outputs": [],
            "stateMutability": "nonpayable",
            "type": "function"
        },
        {
            "inputs": [
                {
                    "internalType": "uint256",
                    "name": "tokenId",
                    "type": "uint256"
                }
            ],
            "name": "getApproved",
            "outputs": [
                {
                    "internalType": "address",
                    "name": "",
                    "type": "address"
                }
            ],
            "stateMutability": "view",
            "type": "function"
        },
        {
            "inputs": [
                {
                    "internalType": "address",
                    "name": "owner",
                    "type": "address"
                },
                {
                    "internalType": "address",
                    "name": "operator",
                    "type": "address"
                }
            ],
            "name": "isApprovedForAll",
            "outputs": [
                {
                    "internalType": "bool",
                    "name": "",
                    "type": "bool"
                }
            ],
            "stateMutability": "view",
            "type": "function"
        },
        {
            "inputs": [
                {
                    "internalType": "string",
                    "name": "_color",
                    "type": "string"
                }
            ],
            "name": "mint",
            "outputs": [],
            "stateMutability": "nonpayable",
            "type": "function"
        },
        {
            "inputs": [],
            "name": "name",
            "outputs": [
                {
                    "internalType": "string",
                    "name": "",
                    "type": "string"
                }
            ],
            "stateMutability": "view",
            "type": "function"
        },
        {
            "inputs": [
                {
                    "internalType": "uint256",
                    "name": "tokenId",
                    "type": "uint256"
                }
            ],
            "name": "ownerOf",
            "outputs": [
                {
                    "internalType": "address",
                    "name": "",
                    "type": "address"
                }
            ],
            "stateMutability": "view",
            "type": "function"
        },
        {
            "inputs": [
                {
                    "internalType": "address",
                    "name": "from",
                    "type": "address"
                },
                {
                    "internalType": "address",
                    "name": "to",
                    "type": "address"
                },
                {
                    "internalType": "uint256",
                    "name": "tokenId",
                    "type": "uint256"
                }
            ],
            "name": "safeTransferFrom",
            "outputs": [],
            "stateMutability": "nonpayable",
            "type": "function"
        },
        {
            "inputs": [
                {
                    "internalType": "address",
                    "name": "from",
                    "type": "address"
                },
                {
                    "internalType": "address",
                    "name": "to",
                    "type": "address"
                },
                {
                    "internalType": "uint256",
                    "name": "tokenId",
                    "type": "uint256"
                },
                {
                    "internalType": "bytes",
                    "name": "_data",
                    "type": "bytes"
                }
            ],
            "name": "safeTransferFrom",
            "outputs": [],
            "stateMutability": "nonpayable",
            "type": "function"
        },
        {
            "inputs": [
                {
                    "internalType": "address",
                    "name": "operator",
                    "type": "address"
                },
                {
                    "internalType": "bool",
                    "name": "approved",
                    "type": "bool"
                }
            ],
            "name": "setApprovalForAll",
            "outputs": [],
            "stateMutability": "nonpayable",
            "type": "function"
        },
        {
            "inputs": [
                {
                    "internalType": "uint256",
                    "name": "_id",
                    "type": "uint256"
                },
                {
                    "internalType": "uint256",
                    "name": "_cost",
                    "type": "uint256"
                }
            ],
            "name": "setCost",
            "outputs": [],
            "stateMutability": "nonpayable",
            "type": "function"
        },
        {
            "inputs": [
                {
                    "internalType": "bytes4",
                    "name": "interfaceId",
                    "type": "bytes4"
                }
            ],
            "name": "supportsInterface",
            "outputs": [
                {
                    "internalType": "bool",
                    "name": "",
                    "type": "bool"
                }
            ],
            "stateMutability": "view",
            "type": "function"
        },
        {
            "inputs": [],
            "name": "symbol",
            "outputs": [
                {
                    "internalType": "string",
                    "name": "",
                    "type": "string"
                }
            ],
            "stateMutability": "view",
            "type": "function"
        },
        {
            "inputs": [
                {
                    "internalType": "uint256",
                    "name": "tokenId",
                    "type": "uint256"
                }
            ],
            "name": "tokenURI",
            "outputs": [
                {
                    "internalType": "string",
                    "name": "",
                    "type": "string"
                }
            ],
            "stateMutability": "view",
            "type": "function"
        },
        {
            "inputs": [
                {
                    "internalType": "uint256",
                    "name": "",
                    "type": "uint256"
                }
            ],
            "name": "tokens",
            "outputs": [
                {
                    "internalType": "address",
                    "name": "author",
                    "type": "address"
                },
                {
                    "internalType": "uint256",
                    "name": "cost",
                    "type": "uint256"
                },
                {
                    "internalType": "string",
                    "name": "color",
                    "type": "string"
                },
                {
                    "internalType": "bool",
                    "name": "isSell",
                    "type": "bool"
                }
            ],
            "stateMutability": "view",
            "type": "function"
        },
        {
            "inputs": [],
            "name": "totalSupply",
            "outputs": [
                {
                    "internalType": "uint256",
                    "name": "",
                    "type": "uint256"
                }
            ],
            "stateMutability": "view",
            "type": "function"
        },
        {
            "inputs": [
                {
                    "internalType": "address",
                    "name": "from",
                    "type": "address"
                },
                {
                    "internalType": "address",
                    "name": "to",
                    "type": "address"
                },
                {
                    "internalType": "uint256",
                    "name": "tokenId",
                    "type": "uint256"
                }
            ],
            "name": "transferFrom",
            "outputs": [],
            "stateMutability": "nonpayable",
            "type": "function"
        }
    ],
    "bytecode": "60806040523480156200001157600080fd5b506040518060400160405280600581526020016421b7b637b960d91b8152506040518060400160405280600581526020016421a7a627a960d91b81525081600090805190602001906200006692919062000085565b5080516200007c90600190602084019062000085565b50505062000168565b82805462000093906200012b565b90600052602060002090601f016020900481019282620000b7576000855562000102565b82601f10620000d257805160ff191683800117855562000102565b8280016001018555821562000102579182015b8281111562000102578251825591602001919060010190620000e5565b506200011092915062000114565b5090565b5b8082111562000110576000815560010162000115565b600181811c908216806200014057607f821691505b602082108114156200016257634e487b7160e01b600052602260045260246000fd5b50919050565b611c8a80620001786000396000f3fe6080604052600436106101145760003560e01c806370a08231116100a0578063c5bd682711610064578063c5bd68271461030e578063c87b56dd1461032e578063d85d3d271461034e578063d96a094a1461036e578063e985e9c51461038157600080fd5b806370a08231146102795780637696e0881461029957806395d89b41146102b9578063a22cb465146102ce578063b88d4fde146102ee57600080fd5b806318160ddd116100e757806318160ddd146101ca57806323b872dd146101e957806342842e0e146102095780634f64b2be146102295780636352211e1461025957600080fd5b806301ffc9a71461011957806306fdde031461014e578063081812fc14610170578063095ea7b3146101a8575b600080fd5b34801561012557600080fd5b50610139610134366004611627565b6103ca565b60405190151581526020015b60405180910390f35b34801561015a57600080fd5b5061016361041c565b604051610145919061169c565b34801561017c57600080fd5b5061019061018b3660046116af565b6104ae565b6040516001600160a01b039091168152602001610145565b3480156101b457600080fd5b506101c86101c33660046116e4565b610548565b005b3480156101d657600080fd5b506006545b604051908152602001610145565b3480156101f557600080fd5b506101c861020436600461170e565b61065e565b34801561021557600080fd5b506101c861022436600461170e565b61068f565b34801561023557600080fd5b506102496102443660046116af565b6106aa565b604051610145949392919061174a565b34801561026557600080fd5b506101906102743660046116af565b61077c565b34801561028557600080fd5b506101db610294366004611784565b6107f3565b3480156102a557600080fd5b506101c86102b436600461179f565b61087a565b3480156102c557600080fd5b5061016361094d565b3480156102da57600080fd5b506101c86102e93660046117c1565b61095c565b3480156102fa57600080fd5b506101c8610309366004611889565b610a21565b34801561031a57600080fd5b506101c86103293660046116af565b610a59565b34801561033a57600080fd5b506101636103493660046116af565b610b50565b34801561035a57600080fd5b506101c8610369366004611905565b610c38565b6101c861037c3660046116af565b610d99565b34801561038d57600080fd5b5061013961039c36600461194e565b6001600160a01b03918216600090815260056020908152604080832093909416825291909152205460ff1690565b60006001600160e01b031982166380ac58cd60e01b14806103fb57506001600160e01b03198216635b5e139f60e01b145b8061041657506301ffc9a760e01b6001600160e01b03198316145b92915050565b60606000805461042b90611981565b80601f016020809104026020016040519081016040528092919081815260200182805461045790611981565b80156104a45780601f10610479576101008083540402835291602001916104a4565b820191906000526020600020905b81548152906001019060200180831161048757829003601f168201915b5050505050905090565b6000818152600260205260408120546001600160a01b031661052c5760405162461bcd60e51b815260206004820152602c60248201527f4552433732313a20617070726f76656420717565727920666f72206e6f6e657860448201526b34b9ba32b73a103a37b5b2b760a11b60648201526084015b60405180910390fd5b506000908152600460205260409020546001600160a01b031690565b60006105538261077c565b9050806001600160a01b0316836001600160a01b031614156105c15760405162461bcd60e51b815260206004820152602160248201527f4552433732313a20617070726f76616c20746f2063757272656e74206f776e656044820152603960f91b6064820152608401610523565b336001600160a01b03821614806105dd57506105dd813361039c565b61064f5760405162461bcd60e51b815260206004820152603860248201527f4552433732313a20617070726f76652063616c6c6572206973206e6f74206f7760448201527f6e6572206e6f7220617070726f76656420666f7220616c6c00000000000000006064820152608401610523565b6106598383610ef0565b505050565b6106683382610f5e565b6106845760405162461bcd60e51b8152600401610523906119bc565b610659838383611055565b61065983838360405180602001604052806000815250610a21565b600681815481106106ba57600080fd5b60009182526020909120600490910201805460018201546002830180546001600160a01b0390931694509092916106f090611981565b80601f016020809104026020016040519081016040528092919081815260200182805461071c90611981565b80156107695780601f1061073e57610100808354040283529160200191610769565b820191906000526020600020905b81548152906001019060200180831161074c57829003601f168201915b5050506003909301549192505060ff1684565b6000818152600260205260408120546001600160a01b0316806104165760405162461bcd60e51b815260206004820152602960248201527f4552433732313a206f776e657220717565727920666f72206e6f6e657869737460448201526832b73a103a37b5b2b760b91b6064820152608401610523565b60006001600160a01b03821661085e5760405162461bcd60e51b815260206004820152602a60248201527f4552433732313a2062616c616e636520717565727920666f7220746865207a65604482015269726f206164647265737360b01b6064820152608401610523565b506001600160a01b031660009081526003602052604090205490565b8160076006828154811061089057610890611a0d565b90600052602060002090600402016002016040516108ae9190611a23565b9081526040519081900360200190205460ff16156108cb57600080fd5b82600681815481106108df576108df611a0d565b60009182526020909120600490910201546001600160a01b0316331461090457600080fd5b600084118015610915575060065484105b61091e57600080fd5b826006858154811061093257610932611a0d565b90600052602060002090600402016001018190555050505050565b60606001805461042b90611981565b6001600160a01b0382163314156109b55760405162461bcd60e51b815260206004820152601960248201527f4552433732313a20617070726f766520746f2063616c6c6572000000000000006044820152606401610523565b3360008181526005602090815260408083206001600160a01b03871680855290835292819020805460ff191686151590811790915590519081529192917f17307eab39ab6107e8899845ad3d59bd9653f200f220920489ca2b5937696c31910160405180910390a35050565b610a2b3383610f5e565b610a475760405162461bcd60e51b8152600401610523906119bc565b610a53848484846111f5565b50505050565b80600760068281548110610a6f57610a6f611a0d565b9060005260206000209060040201600201604051610a8d9190611a23565b9081526040519081900360200190205460ff1615610aaa57600080fd5b8160068181548110610abe57610abe611a0d565b60009182526020909120600490910201546001600160a01b03163314610ae357600080fd5b60068381548110610af657610af6611a0d565b906000526020600020906004020160030160009054906101000a900460ff161560068481548110610b2957610b29611a0d565b60009182526020909120600490910201600301805460ff1916911515919091179055505050565b6000818152600260205260409020546060906001600160a01b0316610bcf5760405162461bcd60e51b815260206004820152602f60248201527f4552433732314d657461646174613a2055524920717565727920666f72206e6f60448201526e3732bc34b9ba32b73a103a37b5b2b760891b6064820152608401610523565b6000610be660408051602081019091526000815290565b90506000815111610c065760405180602001604052806000815250610c31565b80610c1084611228565b604051602001610c21929190611abf565b6040516020818303038152906040525b9392505050565b600781604051610c489190611aee565b9081526040519081900360200190205460ff1615610c6557600080fd5b60408051608081018252338152600060208083018281529383018581526060840183905260068054600181018255935283517ff652222313e28459528d920b65115c16c04f3efc82aaedc97be59f3f377c0d3f600490940293840180546001600160a01b0319166001600160a01b0390921691909117815594517ff652222313e28459528d920b65115c16c04f3efc82aaedc97be59f3f377c0d40840155518051939493610d3a937ff652222313e28459528d920b65115c16c04f3efc82aaedc97be59f3f377c0d4101929190910190611575565b50606091909101516003909101805460ff1916911515919091179055600654610d64903390611326565b6001600782604051610d769190611aee565b908152604051908190036020019020805491151560ff1990921691909117905550565b80600760068281548110610daf57610daf611a0d565b9060005260206000209060040201600201604051610dcd9190611a23565b9081526040519081900360200190205460ff1615610dea57600080fd5b60068281548110610dfd57610dfd611a0d565b60009182526020909120600490910201546001600160a01b0316331415610e2357600080fd5b60068281548110610e3657610e36611a0d565b6000918252602090912060049091020154600680546001600160a01b03909216916108fc919085908110610e6c57610e6c611a0d565b9060005260206000209060040201600101549081150290604051600060405180830381858888f19350505050158015610ea9573d6000803e3d6000fd5b503360068381548110610ebe57610ebe611a0d565b6000918252602090912060049091020180546001600160a01b0319166001600160a01b03929092169190911790555050565b600081815260046020526040902080546001600160a01b0319166001600160a01b0384169081179091558190610f258261077c565b6001600160a01b03167f8c5be1e5ebec7d5bd14f71427d1e84f3dd0314c0f7b2291e5b200ac8c7c3b92560405160405180910390a45050565b6000818152600260205260408120546001600160a01b0316610fd75760405162461bcd60e51b815260206004820152602c60248201527f4552433732313a206f70657261746f7220717565727920666f72206e6f6e657860448201526b34b9ba32b73a103a37b5b2b760a11b6064820152608401610523565b6000610fe28361077c565b9050806001600160a01b0316846001600160a01b0316148061101d5750836001600160a01b0316611012846104ae565b6001600160a01b0316145b8061104d57506001600160a01b0380821660009081526005602090815260408083209388168352929052205460ff165b949350505050565b826001600160a01b03166110688261077c565b6001600160a01b0316146110d05760405162461bcd60e51b815260206004820152602960248201527f4552433732313a207472616e73666572206f6620746f6b656e2074686174206960448201526839903737ba1037bbb760b91b6064820152608401610523565b6001600160a01b0382166111325760405162461bcd60e51b8152602060048201526024808201527f4552433732313a207472616e7366657220746f20746865207a65726f206164646044820152637265737360e01b6064820152608401610523565b61113d600082610ef0565b6001600160a01b0383166000908152600360205260408120805460019290611166908490611b20565b90915550506001600160a01b0382166000908152600360205260408120805460019290611194908490611b37565b909155505060008181526002602052604080822080546001600160a01b0319166001600160a01b0386811691821790925591518493918716917fddf252ad1be2c89b69c2b068fc378daa952ba7f163c4a11628f55a4df523b3ef91a4505050565b611200848484611055565b61120c84848484611468565b610a535760405162461bcd60e51b815260040161052390611b4f565b60608161124c5750506040805180820190915260018152600360fc1b602082015290565b8160005b8115611276578061126081611ba1565b915061126f9050600a83611bd2565b9150611250565b60008167ffffffffffffffff811115611291576112916117fd565b6040519080825280601f01601f1916602001820160405280156112bb576020820181803683370190505b5090505b841561104d576112d0600183611b20565b91506112dd600a86611be6565b6112e8906030611b37565b60f81b8183815181106112fd576112fd611a0d565b60200101906001600160f81b031916908160001a90535061131f600a86611bd2565b94506112bf565b6001600160a01b03821661137c5760405162461bcd60e51b815260206004820181905260248201527f4552433732313a206d696e7420746f20746865207a65726f20616464726573736044820152606401610523565b6000818152600260205260409020546001600160a01b0316156113e15760405162461bcd60e51b815260206004820152601c60248201527f4552433732313a20746f6b656e20616c7265616479206d696e746564000000006044820152606401610523565b6001600160a01b038216600090815260036020526040812080546001929061140a908490611b37565b909155505060008181526002602052604080822080546001600160a01b0319166001600160a01b03861690811790915590518392907fddf252ad1be2c89b69c2b068fc378daa952ba7f163c4a11628f55a4df523b3ef908290a45050565b60006001600160a01b0384163b1561156a57604051630a85bd0160e11b81526001600160a01b0385169063150b7a02906114ac903390899088908890600401611bfa565b602060405180830381600087803b1580156114c657600080fd5b505af19250505080156114f6575060408051601f3d908101601f191682019092526114f391810190611c37565b60015b611550573d808015611524576040519150601f19603f3d011682016040523d82523d6000602084013e611529565b606091505b5080516115485760405162461bcd60e51b815260040161052390611b4f565b805181602001fd5b6001600160e01b031916630a85bd0160e11b14905061104d565b506001949350505050565b82805461158190611981565b90600052602060002090601f0160209004810192826115a357600085556115e9565b82601f106115bc57805160ff19168380011785556115e9565b828001600101855582156115e9579182015b828111156115e95782518255916020019190600101906115ce565b506115f59291506115f9565b5090565b5b808211156115f557600081556001016115fa565b6001600160e01b03198116811461162457600080fd5b50565b60006020828403121561163957600080fd5b8135610c318161160e565b60005b8381101561165f578181015183820152602001611647565b83811115610a535750506000910152565b60008151808452611688816020860160208601611644565b601f01601f19169290920160200192915050565b602081526000610c316020830184611670565b6000602082840312156116c157600080fd5b5035919050565b80356001600160a01b03811681146116df57600080fd5b919050565b600080604083850312156116f757600080fd5b611700836116c8565b946020939093013593505050565b60008060006060848603121561172357600080fd5b61172c846116c8565b925061173a602085016116c8565b9150604084013590509250925092565b60018060a01b03851681528360208201526080604082015260006117716080830185611670565b9050821515606083015295945050505050565b60006020828403121561179657600080fd5b610c31826116c8565b600080604083850312156117b257600080fd5b50508035926020909101359150565b600080604083850312156117d457600080fd5b6117dd836116c8565b9150602083013580151581146117f257600080fd5b809150509250929050565b634e487b7160e01b600052604160045260246000fd5b600067ffffffffffffffff8084111561182e5761182e6117fd565b604051601f8501601f19908116603f01168101908282118183101715611856576118566117fd565b8160405280935085815286868601111561186f57600080fd5b858560208301376000602087830101525050509392505050565b6000806000806080858703121561189f57600080fd5b6118a8856116c8565b93506118b6602086016116c8565b925060408501359150606085013567ffffffffffffffff8111156118d957600080fd5b8501601f810187136118ea57600080fd5b6118f987823560208401611813565b91505092959194509250565b60006020828403121561191757600080fd5b813567ffffffffffffffff81111561192e57600080fd5b8201601f8101841361193f57600080fd5b61104d84823560208401611813565b6000806040838503121561196157600080fd5b61196a836116c8565b9150611978602084016116c8565b90509250929050565b600181811c9082168061199557607f821691505b602082108114156119b657634e487b7160e01b600052602260045260246000fd5b50919050565b60208082526031908201527f4552433732313a207472616e736665722063616c6c6572206973206e6f74206f6040820152701ddb995c881b9bdc88185c1c1c9bdd9959607a1b606082015260800190565b634e487b7160e01b600052603260045260246000fd5b600080835481600182811c915080831680611a3f57607f831692505b6020808410821415611a5f57634e487b7160e01b86526022600452602486fd5b818015611a735760018114611a8457611ab1565b60ff19861689528489019650611ab1565b60008a81526020902060005b86811015611aa95781548b820152908501908301611a90565b505084890196505b509498975050505050505050565b60008351611ad1818460208801611644565b835190830190611ae5818360208801611644565b01949350505050565b60008251611b00818460208701611644565b9190910192915050565b634e487b7160e01b600052601160045260246000fd5b600082821015611b3257611b32611b0a565b500390565b60008219821115611b4a57611b4a611b0a565b500190565b60208082526032908201527f4552433732313a207472616e7366657220746f206e6f6e20455243373231526560408201527131b2b4bb32b91034b6b83632b6b2b73a32b960711b606082015260800190565b6000600019821415611bb557611bb5611b0a565b5060010190565b634e487b7160e01b600052601260045260246000fd5b600082611be157611be1611bbc565b500490565b600082611bf557611bf5611bbc565b500690565b6001600160a01b0385811682528416602082015260408101839052608060608201819052600090611c2d90830184611670565b9695505050505050565b600060208284031215611c4957600080fd5b8151610c318161160e56fea26469706673582212204798f4558c7531df75c0409e1363858e73d3370ae5fb45b7c6960f84f76e8b2664736f6c63430008090033",
    "sourcePath": "c:/Solidity/Projects/nft/src/contracts/Color.sol",
    "compiler": {
        "name": "solc",
        "version": "0.8.9+commit.e5eed63a"
    },
    "functionHashes": {
        "approve(address,uint256)": "095ea7b3",
        "balanceOf(address)": "70a08231",
        "buy(uint256)": "d96a094a",
        "changeStatusSell(uint256)": "c5bd6827",
        "getApproved(uint256)": "081812fc",
        "isApprovedForAll(address,address)": "e985e9c5",
        "mint(string)": "d85d3d27",
        "name()": "06fdde03",
        "ownerOf(uint256)": "6352211e",
        "safeTransferFrom(address,address,uint256)": "42842e0e",
        "safeTransferFrom(address,address,uint256,bytes)": "b88d4fde",
        "setApprovalForAll(address,bool)": "a22cb465",
        "setCost(uint256,uint256)": "7696e088",
        "supportsInterface(bytes4)": "01ffc9a7",
        "symbol()": "95d89b41",
        "tokenURI(uint256)": "c87b56dd",
        "tokens(uint256)": "4f64b2be",
        "totalSupply()": "18160ddd",
        "transferFrom(address,address,uint256)": "23b872dd"
    },
    "gasEstimates": {
        "creation": {
            "codeDepositCost": "1461200",
            "executionCost": "infinite",
            "totalCost": "infinite"
        },
        "external": {
            "approve(address,uint256)": "infinite",
            "balanceOf(address)": "2612",
            "buy(uint256)": "infinite",
            "changeStatusSell(uint256)": "infinite",
            "getApproved(uint256)": "4760",
            "isApprovedForAll(address,address)": "infinite",
            "mint(string)": "infinite",
            "name()": "infinite",
            "ownerOf(uint256)": "2667",
            "safeTransferFrom(address,address,uint256)": "infinite",
            "safeTransferFrom(address,address,uint256,bytes)": "infinite",
            "setApprovalForAll(address,bool)": "26717",
            "setCost(uint256,uint256)": "infinite",
            "supportsInterface(bytes4)": "534",
            "symbol()": "infinite",
            "tokenURI(uint256)": "infinite",
            "tokens(uint256)": "infinite",
            "totalSupply()": "2304",
            "transferFrom(address,address,uint256)": "infinite"
        }
    }
}